:100000000C9433000C9400000C9400000C9400003D
:100010000C9400000C9400000C9400000C946900F7
:100020000C9400000C9463000C9400000C940000ED
:100030000C9400000C9400000C9400000C94000040
:100040000C9400000C9400000C9400000C94000030
:100050000C940000000000000100020054000200A7
:10006000040056000000F894EE27ECBBF1E0FBBF63
:10007000EBBFE5BFF8E1F1BDE1BD8DE0A2E0BB273C
:10008000ED938A95E9F780E098E0A0E6ED9301977B
:10009000E9F7E8E5F0E085919591009761F0A59189
:1000A000B59105901590BF01F00105900D92019753
:1000B000E1F7FB01F0CFEFE5EDBFE8E0EEBFC0E612
:1000C000D2E00C949E00C09B02C0C09801C0C09AB0
:1000D0001895AA93EA93FA93EFB7EA93C09B02C0EC
:1000E000C09801C0C09AF20131962F01E5E0F0E01E
:1000F000E415F505E9F420FC04C0EAB5FBB531963A
:1001000003C0EAB5FBB53197FBBDEABDEAB5FBB567
:10011000E83EA3E0FA0711F4689420F8EAB5FBB5CD
:10012000E130A0E0FA0711F4E89420F844245524C3
:10013000E991EFBFF991E991A9911895E0E0E8BB49
:10014000E1E0E7BBE0E0E2BBE0E2E1BBE3ECEFBD16
:10015000E9E0EEBDE0E0EDBDECBDE7BDE6BDEBBD29
:10016000EFE3EABDE0E0E9BDE8BDE4E1E9BF789492
:1001700003D006D0FECFFFCFE5B7E068E5BF089516
:10018000E5B7EF78E5BFEFB778948895EFBF0895AE
:00000001FF
